{
  "address": "0x89A9dC0A72ebB5Fa99A9872140dF40E46DF09e66",
  "abi": [
    {
      "inputs": [],
      "stateMutability": "nonpayable",
      "type": "constructor"
    },
    {
      "inputs": [],
      "name": "ERC721EnumerableForbiddenBatchMint",
      "type": "error"
    },
    {
      "inputs": [
        {
          "internalType": "address",
          "name": "sender",
          "type": "address"
        },
        {
          "internalType": "uint256",
          "name": "tokenId",
          "type": "uint256"
        },
        {
          "internalType": "address",
          "name": "owner",
          "type": "address"
        }
      ],
      "name": "ERC721IncorrectOwner",
      "type": "error"
    },
    {
      "inputs": [
        {
          "internalType": "address",
          "name": "operator",
          "type": "address"
        },
        {
          "internalType": "uint256",
          "name": "tokenId",
          "type": "uint256"
        }
      ],
      "name": "ERC721InsufficientApproval",
      "type": "error"
    },
    {
      "inputs": [
        {
          "internalType": "address",
          "name": "approver",
          "type": "address"
        }
      ],
      "name": "ERC721InvalidApprover",
      "type": "error"
    },
    {
      "inputs": [
        {
          "internalType": "address",
          "name": "operator",
          "type": "address"
        }
      ],
      "name": "ERC721InvalidOperator",
      "type": "error"
    },
    {
      "inputs": [
        {
          "internalType": "address",
          "name": "owner",
          "type": "address"
        }
      ],
      "name": "ERC721InvalidOwner",
      "type": "error"
    },
    {
      "inputs": [
        {
          "internalType": "address",
          "name": "receiver",
          "type": "address"
        }
      ],
      "name": "ERC721InvalidReceiver",
      "type": "error"
    },
    {
      "inputs": [
        {
          "internalType": "address",
          "name": "sender",
          "type": "address"
        }
      ],
      "name": "ERC721InvalidSender",
      "type": "error"
    },
    {
      "inputs": [
        {
          "internalType": "uint256",
          "name": "tokenId",
          "type": "uint256"
        }
      ],
      "name": "ERC721NonexistentToken",
      "type": "error"
    },
    {
      "inputs": [
        {
          "internalType": "address",
          "name": "owner",
          "type": "address"
        },
        {
          "internalType": "uint256",
          "name": "index",
          "type": "uint256"
        }
      ],
      "name": "ERC721OutOfBoundsIndex",
      "type": "error"
    },
    {
      "inputs": [],
      "name": "InvalidScore",
      "type": "error"
    },
    {
      "inputs": [],
      "name": "InvalidTotalQuestions",
      "type": "error"
    },
    {
      "inputs": [
        {
          "internalType": "address",
          "name": "owner",
          "type": "address"
        }
      ],
      "name": "OwnableInvalidOwner",
      "type": "error"
    },
    {
      "inputs": [
        {
          "internalType": "address",
          "name": "account",
          "type": "address"
        }
      ],
      "name": "OwnableUnauthorizedAccount",
      "type": "error"
    },
    {
      "inputs": [],
      "name": "QuizNameTooLong",
      "type": "error"
    },
    {
      "inputs": [],
      "name": "ZeroAddress",
      "type": "error"
    },
    {
      "anonymous": false,
      "inputs": [
        {
          "indexed": true,
          "internalType": "address",
          "name": "owner",
          "type": "address"
        },
        {
          "indexed": true,
          "internalType": "address",
          "name": "approved",
          "type": "address"
        },
        {
          "indexed": true,
          "internalType": "uint256",
          "name": "tokenId",
          "type": "uint256"
        }
      ],
      "name": "Approval",
      "type": "event"
    },
    {
      "anonymous": false,
      "inputs": [
        {
          "indexed": true,
          "internalType": "address",
          "name": "owner",
          "type": "address"
        },
        {
          "indexed": true,
          "internalType": "address",
          "name": "operator",
          "type": "address"
        },
        {
          "indexed": false,
          "internalType": "bool",
          "name": "approved",
          "type": "bool"
        }
      ],
      "name": "ApprovalForAll",
      "type": "event"
    },
    {
      "anonymous": false,
      "inputs": [
        {
          "indexed": true,
          "internalType": "address",
          "name": "player",
          "type": "address"
        },
        {
          "indexed": true,
          "internalType": "uint256",
          "name": "tokenId",
          "type": "uint256"
        },
        {
          "indexed": true,
          "internalType": "uint256",
          "name": "quizId",
          "type": "uint256"
        },
        {
          "indexed": false,
          "internalType": "uint8",
          "name": "correctAnswers",
          "type": "uint8"
        },
        {
          "indexed": false,
          "internalType": "string",
          "name": "tier",
          "type": "string"
        }
      ],
      "name": "BadgeMinted",
      "type": "event"
    },
    {
      "anonymous": false,
      "inputs": [
        {
          "indexed": false,
          "internalType": "string",
          "name": "oldBaseURI",
          "type": "string"
        },
        {
          "indexed": false,
          "internalType": "string",
          "name": "newBaseURI",
          "type": "string"
        }
      ],
      "name": "BaseURIUpdated",
      "type": "event"
    },
    {
      "anonymous": false,
      "inputs": [
        {
          "indexed": true,
          "internalType": "address",
          "name": "previousOwner",
          "type": "address"
        },
        {
          "indexed": true,
          "internalType": "address",
          "name": "newOwner",
          "type": "address"
        }
      ],
      "name": "OwnershipTransferred",
      "type": "event"
    },
    {
      "anonymous": false,
      "inputs": [
        {
          "indexed": true,
          "internalType": "address",
          "name": "from",
          "type": "address"
        },
        {
          "indexed": true,
          "internalType": "address",
          "name": "to",
          "type": "address"
        },
        {
          "indexed": true,
          "internalType": "uint256",
          "name": "tokenId",
          "type": "uint256"
        }
      ],
      "name": "Transfer",
      "type": "event"
    },
    {
      "inputs": [
        {
          "internalType": "address",
          "name": "to",
          "type": "address"
        },
        {
          "internalType": "uint256",
          "name": "tokenId",
          "type": "uint256"
        }
      ],
      "name": "approve",
      "outputs": [],
      "stateMutability": "nonpayable",
      "type": "function"
    },
    {
      "inputs": [
        {
          "internalType": "uint256",
          "name": "",
          "type": "uint256"
        }
      ],
      "name": "badges",
      "outputs": [
        {
          "internalType": "uint256",
          "name": "quizId",
          "type": "uint256"
        },
        {
          "internalType": "uint8",
          "name": "correctAnswers",
          "type": "uint8"
        },
        {
          "internalType": "uint8",
          "name": "totalQuestions",
          "type": "uint8"
        },
        {
          "internalType": "uint256",
          "name": "completedAt",
          "type": "uint256"
        },
        {
          "internalType": "string",
          "name": "quizName",
          "type": "string"
        }
      ],
      "stateMutability": "view",
      "type": "function"
    },
    {
      "inputs": [
        {
          "internalType": "address",
          "name": "owner",
          "type": "address"
        }
      ],
      "name": "balanceOf",
      "outputs": [
        {
          "internalType": "uint256",
          "name": "",
          "type": "uint256"
        }
      ],
      "stateMutability": "view",
      "type": "function"
    },
    {
      "inputs": [],
      "name": "baseURI",
      "outputs": [
        {
          "internalType": "string",
          "name": "",
          "type": "string"
        }
      ],
      "stateMutability": "view",
      "type": "function"
    },
    {
      "inputs": [
        {
          "internalType": "uint256",
          "name": "tokenId",
          "type": "uint256"
        }
      ],
      "name": "getApproved",
      "outputs": [
        {
          "internalType": "address",
          "name": "",
          "type": "address"
        }
      ],
      "stateMutability": "view",
      "type": "function"
    },
    {
      "inputs": [
        {
          "internalType": "uint256",
          "name": "tokenId",
          "type": "uint256"
        }
      ],
      "name": "getBadgeTier",
      "outputs": [
        {
          "internalType": "string",
          "name": "",
          "type": "string"
        }
      ],
      "stateMutability": "view",
      "type": "function"
    },
    {
      "inputs": [
        {
          "internalType": "address",
          "name": "",
          "type": "address"
        },
        {
          "internalType": "uint256",
          "name": "",
          "type": "uint256"
        }
      ],
      "name": "hasBadgeForQuiz",
      "outputs": [
        {
          "internalType": "bool",
          "name": "",
          "type": "bool"
        }
      ],
      "stateMutability": "view",
      "type": "function"
    },
    {
      "inputs": [
        {
          "internalType": "address",
          "name": "owner",
          "type": "address"
        },
        {
          "internalType": "address",
          "name": "operator",
          "type": "address"
        }
      ],
      "name": "isApprovedForAll",
      "outputs": [
        {
          "internalType": "bool",
          "name": "",
          "type": "bool"
        }
      ],
      "stateMutability": "view",
      "type": "function"
    },
    {
      "inputs": [
        {
          "internalType": "address",
          "name": "to",
          "type": "address"
        },
        {
          "internalType": "uint256",
          "name": "quizId",
          "type": "uint256"
        },
        {
          "internalType": "uint8",
          "name": "correctAnswers",
          "type": "uint8"
        },
        {
          "internalType": "uint8",
          "name": "totalQuestions",
          "type": "uint8"
        },
        {
          "internalType": "string",
          "name": "quizName",
          "type": "string"
        }
      ],
      "name": "mintBadge",
      "outputs": [
        {
          "internalType": "uint256",
          "name": "",
          "type": "uint256"
        }
      ],
      "stateMutability": "nonpayable",
      "type": "function"
    },
    {
      "inputs": [],
      "name": "name",
      "outputs": [
        {
          "internalType": "string",
          "name": "",
          "type": "string"
        }
      ],
      "stateMutability": "view",
      "type": "function"
    },
    {
      "inputs": [],
      "name": "owner",
      "outputs": [
        {
          "internalType": "address",
          "name": "",
          "type": "address"
        }
      ],
      "stateMutability": "view",
      "type": "function"
    },
    {
      "inputs": [
        {
          "internalType": "uint256",
          "name": "tokenId",
          "type": "uint256"
        }
      ],
      "name": "ownerOf",
      "outputs": [
        {
          "internalType": "address",
          "name": "",
          "type": "address"
        }
      ],
      "stateMutability": "view",
      "type": "function"
    },
    {
      "inputs": [
        {
          "internalType": "address",
          "name": "",
          "type": "address"
        },
        {
          "internalType": "uint256",
          "name": "",
          "type": "uint256"
        }
      ],
      "name": "playerQuizBadge",
      "outputs": [
        {
          "internalType": "uint256",
          "name": "",
          "type": "uint256"
        }
      ],
      "stateMutability": "view",
      "type": "function"
    },
    {
      "inputs": [],
      "name": "renounceOwnership",
      "outputs": [],
      "stateMutability": "nonpayable",
      "type": "function"
    },
    {
      "inputs": [
        {
          "internalType": "address",
          "name": "from",
          "type": "address"
        },
        {
          "internalType": "address",
          "name": "to",
          "type": "address"
        },
        {
          "internalType": "uint256",
          "name": "tokenId",
          "type": "uint256"
        }
      ],
      "name": "safeTransferFrom",
      "outputs": [],
      "stateMutability": "nonpayable",
      "type": "function"
    },
    {
      "inputs": [
        {
          "internalType": "address",
          "name": "from",
          "type": "address"
        },
        {
          "internalType": "address",
          "name": "to",
          "type": "address"
        },
        {
          "internalType": "uint256",
          "name": "tokenId",
          "type": "uint256"
        },
        {
          "internalType": "bytes",
          "name": "data",
          "type": "bytes"
        }
      ],
      "name": "safeTransferFrom",
      "outputs": [],
      "stateMutability": "nonpayable",
      "type": "function"
    },
    {
      "inputs": [
        {
          "internalType": "address",
          "name": "operator",
          "type": "address"
        },
        {
          "internalType": "bool",
          "name": "approved",
          "type": "bool"
        }
      ],
      "name": "setApprovalForAll",
      "outputs": [],
      "stateMutability": "nonpayable",
      "type": "function"
    },
    {
      "inputs": [
        {
          "internalType": "string",
          "name": "_baseURI",
          "type": "string"
        }
      ],
      "name": "setBaseURI",
      "outputs": [],
      "stateMutability": "nonpayable",
      "type": "function"
    },
    {
      "inputs": [
        {
          "internalType": "bytes4",
          "name": "interfaceId",
          "type": "bytes4"
        }
      ],
      "name": "supportsInterface",
      "outputs": [
        {
          "internalType": "bool",
          "name": "",
          "type": "bool"
        }
      ],
      "stateMutability": "view",
      "type": "function"
    },
    {
      "inputs": [],
      "name": "symbol",
      "outputs": [
        {
          "internalType": "string",
          "name": "",
          "type": "string"
        }
      ],
      "stateMutability": "view",
      "type": "function"
    },
    {
      "inputs": [
        {
          "internalType": "uint256",
          "name": "index",
          "type": "uint256"
        }
      ],
      "name": "tokenByIndex",
      "outputs": [
        {
          "internalType": "uint256",
          "name": "",
          "type": "uint256"
        }
      ],
      "stateMutability": "view",
      "type": "function"
    },
    {
      "inputs": [
        {
          "internalType": "address",
          "name": "owner",
          "type": "address"
        },
        {
          "internalType": "uint256",
          "name": "index",
          "type": "uint256"
        }
      ],
      "name": "tokenOfOwnerByIndex",
      "outputs": [
        {
          "internalType": "uint256",
          "name": "",
          "type": "uint256"
        }
      ],
      "stateMutability": "view",
      "type": "function"
    },
    {
      "inputs": [
        {
          "internalType": "uint256",
          "name": "tokenId",
          "type": "uint256"
        }
      ],
      "name": "tokenURI",
      "outputs": [
        {
          "internalType": "string",
          "name": "",
          "type": "string"
        }
      ],
      "stateMutability": "view",
      "type": "function"
    },
    {
      "inputs": [],
      "name": "totalSupply",
      "outputs": [
        {
          "internalType": "uint256",
          "name": "",
          "type": "uint256"
        }
      ],
      "stateMutability": "view",
      "type": "function"
    },
    {
      "inputs": [
        {
          "internalType": "address",
          "name": "from",
          "type": "address"
        },
        {
          "internalType": "address",
          "name": "to",
          "type": "address"
        },
        {
          "internalType": "uint256",
          "name": "tokenId",
          "type": "uint256"
        }
      ],
      "name": "transferFrom",
      "outputs": [],
      "stateMutability": "nonpayable",
      "type": "function"
    },
    {
      "inputs": [
        {
          "internalType": "address",
          "name": "newOwner",
          "type": "address"
        }
      ],
      "name": "transferOwnership",
      "outputs": [],
      "stateMutability": "nonpayable",
      "type": "function"
    }
  ],
  "transactionHash": "0x10795b07fbda3891f006c4e7d3bf3446a26dded36b7431198bc65c38e1780cc9",
  "args": [],
  "numDeployments": 1,
  "solcInputHash": "2ef1e24564ee83a51f2e1635a3b1f6c4",
  "bytecode": "0x60803462000339576040906001600160401b0390808301828111828210176200032357835260118152602090704a7565676f20517565737420426164676560781b82820152835190848201828110858211176200032357855260059182815264424144474560d81b848201528151948086116200032357600095806200008688546200033e565b94601f95868111620002ea575b5087908683116001146200028257899262000276575b50508160011b916000199060031b1c19161786555b8151908111620002625780600192620000d884546200033e565b85811162000229575b508690858311600114620001c5578892620001b9575b5050600019600383901b1c191690821b1790555b3315620001a157600a8054336001600160a01b0319821681179092556001600160a01b03167f8be0079c531659141344cd1fd0a4f28419497f9722a3daafe3b4186f6b6457e08680a362000161600c546200033e565b928184116200017f575b856000600c5551612dc49081620003958239f35b84600c620001969652209201901c8101906200037b565b38808080806200016b565b8451631e4fbdf760e01b815260048101859052602490fd5b015190503880620000f7565b8489528789208594509190601f1984168a5b8a828210620002125750508411620001f8575b505050811b0190556200010b565b015160001960f88460031b161c19169055388080620001ea565b8385015186558897909501949384019301620001d7565b6200025190858a52888a20878086018a1c8201928b871062000258575b01891c01906200037b565b38620000e1565b9250819262000246565b634e487b7160e01b86526041600452602486fd5b015190503880620000a9565b898052888a209250601f1984168a5b8a828210620002d3575050908460019594939210620002b9575b505050811b018655620000be565b015160001960f88460031b161c19169055388080620002ab565b600185968293968601518155019501930162000291565b62000312908a8052898b20888086018b1c8201928c871062000319575b018a1c01906200037b565b3862000093565b9250819262000307565b634e487b7160e01b600052604160045260246000fd5b600080fd5b90600182811c9216801562000370575b60208310146200035a57565b634e487b7160e01b600052602260045260246000fd5b91607f16916200034e565b81811062000387575050565b600081556001016200037b56fe6080604052600436101561001257600080fd5b60003560e01c806301ffc9a7146101b757806306fdde03146101b2578063081812fc146101ad578063095ea7b3146101a857806318160ddd146101a357806323b872dd1461019e5780632f745c5914610199578063369f0e721461019457806342842e0e1461018f5780634f6ccce71461018a57806355f804b3146101855780636352211e146101805780636c0360eb1461017b57806370a0823114610176578063715018a6146101715780638da5cb5b1461016c57806395d89b411461016757806398e36d8b14610162578063a22cb4651461015d578063b88d4fde14610158578063c87b56dd14610153578063d90418de1461014e578063e985e9c514610149578063f2fde38b14610144578063f672bf551461013f5763fe15f7811461013a57600080fd5b611400565b611398565b61130a565b6112ad565b611260565b610e87565b610e21565b610d64565b610cf5565b610c50565b610c27565b610bc9565b610b9e565b610b6e565b6109a4565b61082e565b6106b0565b61067c565b6105f1565b61056d565b610556565b610503565b610404565b61039a565b6102b7565b6101d3565b6001600160e01b03198116036101ce57565b600080fd5b346101ce5760203660031901126101ce5760206004356101f2816101bc565b63ffffffff60e01b1663780e9d6360e01b8114908115610218575b506040519015158152f35b6380ac58cd60e01b81149150811561024a575b8115610239575b503861020d565b6301ffc9a760e01b14905038610232565b635b5e139f60e01b8114915061022b565b60005b83811061026e5750506000910152565b818101518382015260200161025e565b906020916102978151809281855285808601910161025b565b601f01601f1916010190565b9060206102b492818152019061027e565b90565b346101ce5760008060031936011261039757604051908080546102d9816109d4565b8085529160019180831690811561036d5750600114610313575b61030f856103038187038261078f565b604051918291826102a3565b0390f35b80809450527f290decd9548b62a8d60345a988386fc84ba6bc95484008f6362f93160ef3e5635b8284106103555750505081016020016103038261030f6102f3565b8054602085870181019190915290930192810161033a565b86955061030f9693506020925061030394915060ff191682840152151560051b82010192936102f3565b80fd5b346101ce5760203660031901126101ce576004356103b7816117e5565b506000526004602052602060018060a01b0360406000205416604051908152f35b600435906001600160a01b03821682036101ce57565b602435906001600160a01b03821682036101ce57565b346101ce5760403660031901126101ce5761041d6103d8565b6024359061042a826117e5565b331515806104f0575b806104c2575b6104aa576104a8926104899181906001600160a01b0385811691167f8c5be1e5ebec7d5bd14f71427d1e84f3dd0314c0f7b2291e5b200ac8c7c3b925600080a46000526004602052604060002090565b80546001600160a01b0319166001600160a01b03909216919091179055565b005b60405163a9fbf51f60e01b8152336004820152602490fd5b506001600160a01b038116600090815260056020908152604080832033845290915290205460ff1615610439565b506001600160a01b038116331415610433565b346101ce5760003660031901126101ce576020600854604051908152f35b60609060031901126101ce576001600160a01b039060043582811681036101ce579160243590811681036101ce579060443590565b346101ce576104a861056736610521565b9161164b565b346101ce5760403660031901126101ce576105866103d8565b6024359061059381611612565b8210156105c65760018060a01b031660005260066020526040600020906000526020526020604060002054604051908152f35b60405163295f44f760e21b81526001600160a01b039190911660048201526024810191909152604490fd5b346101ce5760203660031901126101ce57600435600052600d60205261030f610303604060002061067661066e6040519261062b84610736565b8054845260018101549360806106646003602084019460ff8916865260ff604086019960081c1689526002810154606086015201610aca565b9101525160ff1690565b915160ff1690565b90611e7e565b346101ce576104a861068d36610521565b906040519261069b84610757565b600084526106aa83838361164b565b336119d0565b346101ce5760203660031901126101ce576004356008548110156107015760209060086000527ff3f7a9fe364faab93b216da50a3214154f22a0a2b415b23a84c8169e8b636ee30154604051908152f35b6044906040519063295f44f760e21b8252600060048301526024820152fd5b634e487b7160e01b600052604160045260246000fd5b60a0810190811067ffffffffffffffff82111761075257604052565b610720565b6020810190811067ffffffffffffffff82111761075257604052565b6040810190811067ffffffffffffffff82111761075257604052565b90601f8019910116810190811067ffffffffffffffff82111761075257604052565b604051906107be82610736565b565b67ffffffffffffffff811161075257601f01601f191660200190565b9291926107e8826107c0565b916107f6604051938461078f565b8294818452818301116101ce578281602093846000960137010152565b9080601f830112156101ce578160206102b4933591016107dc565b346101ce576020806003193601126101ce5767ffffffffffffffff906004358281116101ce57610862903690600401610813565b9061086b6115e6565b610873610a0e565b908251938411610752576108918461088c600c546109d4565b611a66565b80601f85116001146108fe575092807f309b29ded109b9e28fb9885757b3e0096eb75c51d23aa4635d68bcd569f6adc1946000916108f3575b508160011b916000199060031b1c191617600c555b6108ee60405192839283611b2b565b0390a1005b9050830151386108ca565b600c60005290601f1985167fdf6966c971051c3d54ec59162606531493a51404a002842f56009d7e5cf4a8c7926000905b82821061098c5750509185917f309b29ded109b9e28fb9885757b3e0096eb75c51d23aa4635d68bcd569f6adc19660019410610973575b5050811b01600c556108df565b85015160001960f88460031b161c191690553880610966565b80600185968294968a0151815501950193019061092f565b346101ce5760203660031901126101ce5760206109c26004356117e5565b6040516001600160a01b039091168152f35b90600182811c92168015610a04575b60208310146109ee57565b634e487b7160e01b600052602260045260246000fd5b91607f16916109e3565b60405190600082600c5491610a22836109d4565b80835292600190818116908115610aa85750600114610a49575b506107be9250038361078f565b600c600090815291507fdf6966c971051c3d54ec59162606531493a51404a002842f56009d7e5cf4a8c75b848310610a8d57506107be935050810160200138610a3c565b81935090816020925483858a01015201910190918592610a74565b9050602092506107be94915060ff191682840152151560051b82010138610a3c565b9060405191826000825492610ade846109d4565b908184526001948581169081600014610b4b5750600114610b08575b50506107be9250038361078f565b9093915060005260209081600020936000915b818310610b335750506107be93508201013880610afa565b85548884018501529485019487945091830191610b1b565b9150506107be94506020925060ff191682840152151560051b8201013880610afa565b346101ce5760003660031901126101ce5761030f610b8a610a0e565b60405191829160208352602083019061027e565b346101ce5760203660031901126101ce576020610bc1610bbc6103d8565b611612565b604051908152f35b346101ce5760008060031936011261039757610be36115e6565b600a80546001600160a01b0319811690915581906001600160a01b03167f8be0079c531659141344cd1fd0a4f28419497f9722a3daafe3b4186f6b6457e08280a380f35b346101ce5760003660031901126101ce57600a546040516001600160a01b039091168152602090f35b346101ce576000806003193601126103975760405190806001805491610c75836109d4565b8086529282811690811561036d5750600114610c9b5761030f856103038187038261078f565b92508083527fb10e2d527612073b26eecdfd717e6a320cf44b4afac2b0732d9fcbe2b7fa0cf65b828410610cdd5750505081016020016103038261030f6102f3565b80546020858701810191909152909301928101610cc2565b346101ce5760203660031901126101ce57600435600052600d6020526040600020805461030f600183015492610d32600360028301549201610aca565b9060ff6040519586958652818116602087015260081c166040850152606084015260a0608084015260a083019061027e565b346101ce5760403660031901126101ce57610d7d6103d8565b602435801515908181036101ce576001600160a01b038316928315610e085790610dc9610dda9233600052600560205260406000209060018060a01b0316600052602052604060002090565b9060ff801983541691151516179055565b6040519081527f17307eab39ab6107e8899845ad3d59bd9653f200f220920489ca2b5937696c3160203392a3005b604051630b61174360e31b815260048101859052602490fd5b346101ce5760803660031901126101ce57610e3a6103d8565b610e426103ee565b906044356064359267ffffffffffffffff84116101ce57366023850112156101ce57610e7b6104a89436906024816004013591016107dc565b926106aa83838361164b565b346101ce5760203660031901126101ce57600435610ea4816117e5565b50610eb981600052600d602052604060002090565b610ec290611ee5565b60208101805160ff169160408101928351610edd9060ff1690565b610ee691611e7e565b90610ef08561241d565b936080820151610eff9061222d565b95610f09906120d4565b94610f12611f43565b610f1b91611ff3565b958251610f27906120d4565b9451610f359060ff166120d4565b9151610f439060ff166120d4565b9260600151610f51906120d4565b6040517f7b226e616d65223a20224a7565676f20517565737420426164676520230000006020820152978897919691603d8901610f8d91611f2c565b7f222c20226465736372697074696f6e223a202241206261646765206561726e6581527f6420627920636f6d706c6574696e672061207175697a206f6e204a7565676f20602082015266145d595cdd088b60ca1b60408201526047017f22696d616765223a2022646174613a696d6167652f7376672b786d6c3b626173815263194d8d0b60e21b602082015260240161102591611f2c565b61088b60f21b81526002016e2261747472696275746573223a205b60881b8152600f017f7b2274726169745f74797065223a20225175697a204944222c202276616c7565815263111d101160e11b602082015260240161108491611f2c565b62089f4b60ea1b81526003017f7b2274726169745f74797065223a20225175697a204e616d65222c202276616c8152653ab2911d101160d11b60208201526026016110ce91611f2c565b62089f4b60ea1b81526003017f7b2274726169745f74797065223a202253636f7265222c202276616c7565223a815261101160f11b602082015260220161111491611f2c565b602f60f81b815260010161112791611f2c565b62089f4b60ea1b81526003017f7b2274726169745f74797065223a202254696572222c202276616c7565223a208152601160f91b602082015260210161116c91611f2c565b62089f4b60ea1b81526003017f7b2274726169745f74797065223a2022436f6d706c65746564204174222c202281527f646973706c61795f74797065223a202264617465222c202276616c7565223a2060208201526040016111cd91611f2c565b607d60f81b8152600101615d7d60f01b81526002010390601f199182810182526111f7908261078f565b6111ff611f43565b61120891611ff3565b6040517f646174613a6170706c69636174696f6e2f6a736f6e3b6261736536342c000000602082015291908290603d820161124291611f2c565b039081018252611252908261078f565b60405161030f8192826102a3565b346101ce5760403660031901126101ce576001600160a01b036112816103d8565b16600052600e6020526040600020602435600052602052602060ff604060002054166040519015158152f35b346101ce5760403660031901126101ce57602060ff6112fe6112cd6103d8565b6112d56103ee565b6001600160a01b0391821660009081526005865260408082209290931681526020919091522090565b54166040519015158152f35b346101ce5760203660031901126101ce576113236103d8565b61132b6115e6565b6001600160a01b0390811690811561137f57600a54826bffffffffffffffffffffffff60a01b821617600a55167f8be0079c531659141344cd1fd0a4f28419497f9722a3daafe3b4186f6b6457e0600080a3005b604051631e4fbdf760e01b815260006004820152602490fd5b346101ce5760403660031901126101ce576001600160a01b036113b96103d8565b16600052600f60205260406000206024356000526020526020604060002054604051908152f35b6044359060ff821682036101ce57565b6064359060ff821682036101ce57565b346101ce5760a03660031901126101ce576114196103d8565b602435906114256113e0565b9161142e6113f0565b60843567ffffffffffffffff81116101ce5761144e903690600401610813565b906114576115e6565b6001600160a01b0384169081156115d45760ff811680156115c25760ff8716116115b057606483511161159e5761030f9561157b7f15436b0ba856ed09ca2244831130edbcc6cd1eda08dd85440f1c55dfee9d9c969261157561150f96600b54998a9889926114cd6114c885611b66565b600b55565b6114d56107b1565b8c815260ff891660208201529060ff87166040830152426060830152608082015261150a84600052600d602052604060002090565b611b7a565b61154e6115418b6115328460018060a01b0316600052600e602052604060002090565b90600052602052604060002090565b805460ff19166001179055565b8161156f8b6115328460018060a01b0316600052600f602052604060002090565b55611c9e565b82611e7e565b9061158b60405192839283611c84565b0390a46040519081529081906020820190565b6040516315e8577b60e31b8152600490fd5b604051631556136560e01b8152600490fd5b604051635007d44960e11b8152600490fd5b60405163d92e233d60e01b8152600490fd5b600a546001600160a01b031633036115fa57565b60405163118cdaa760e01b8152336004820152602490fd5b6001600160a01b0316801561163257600052600360205260406000205490565b6040516322718ad960e21b815260006004820152602490fd5b91906001600160a01b039081811680156117955782918461169692816000526002602052846040600020541690811515908161178c575b81611781575b506116ca575b503391612a52565b93169216908282036116a757505050565b60649350604051926364283d7b60e01b8452600484015260248301526044820152fd5b611779906117096116ed6116e885600052600d602052604060002090565b611ee5565b6001600160a01b039092166000908152600e6020526040902090565b8151600052602052604060002060ff1981541690556117506115416117408660018060a01b0316600052600e602052604060002090565b8351600052602052604060002090565b6001600160a01b0384166000908152600f602052604090205b9051600052602052604060002090565b55843861168e565b905081141538611688565b60019150611682565b604051633250574960e11b815260006004820152602490fd5b604051906117bb82610757565b60008252565b6117d5906000526004602052604060002090565b80546001600160a01b0319169055565b6000818152600260205260409020546001600160a01b0316908115611808575090565b60249060405190637e27328960e01b82526004820152fd5b634e487b7160e01b600052603260045260246000fd5b908160209103126101ce57516102b4816101bc565b6102b4939260809260018060a01b03168252600060208301526040820152816060820152019061027e565b6001600160a01b0391821681529116602082015260408101919091526080606082018190526102b49291019061027e565b3d156118d2573d906118b8826107c0565b916118c6604051938461078f565b82523d6000602084013e565b606090565b91929092833b6118e8575b50505050565b61190c916020916040519384928392630a85bd0160e11b978885526004850161184b565b038160006001600160a01b0388165af1600091816119a0575b5061196457826119336118a7565b805191908261195d57604051633250574960e11b81526001600160a01b0383166004820152602490fd5b6020915001fd5b6001600160e01b0319160361197d5750388080806118e2565b604051633250574960e11b81526001600160a01b03919091166004820152602490fd5b6119c291925060203d81116119c9575b6119ba818361078f565b810190611836565b9038611925565b503d6119b0565b92939193843b6119e2575b5050505050565b602091611a056040519485938493630a85bd0160e11b9889865260048601611876565b038160006001600160a01b0388165af160009181611a46575b50611a2c57826119336118a7565b6001600160e01b0319160361197d575038808080806119db565b611a5f91925060203d81116119c9576119ba818361078f565b9038611a1e565b601f8111611a72575050565b600090600c82527fdf6966c971051c3d54ec59162606531493a51404a002842f56009d7e5cf4a8c7906020601f850160051c83019410611acd575b601f0160051c01915b828110611ac257505050565b818155600101611ab6565b9092508290611aad565b90601f8111611ae557505050565b600091825260208220906020601f850160051c83019410611b21575b601f0160051c01915b828110611b1657505050565b818155600101611b0a565b9092508290611b01565b9091611b426102b49360408452604084019061027e565b91602081840391015261027e565b634e487b7160e01b600052601160045260246000fd5b6000198114611b755760010190565b611b50565b81518155600190608060038383019260209360ff858801511681549061ff0060408a015160081b169161ffff19161717905560608601516002820155019301519081519167ffffffffffffffff831161075257611be183611bdb87546109d4565b87611ad7565b81601f8411600114611c1a5750928293918392600094611c0f575b50501b916000199060031b1c1916179055565b015192503880611bfc565b919083601f198116611c3188600052602060002090565b946000905b88838310611c6a5750505010611c51575b505050811b019055565b015160001960f88460031b161c19169055388080611c47565b858701518855909601959485019487935090810190611c36565b60409060ff6102b49493168152816020820152019061027e565b919060405190611cad82610757565b6000808352936001600160a01b038082168015611dad578390818852600260205282604089205416908115159081611da4575b81611d99575b50611d21575b50611cf7908361293d565b16611d08576107be939450336118d7565b6040516339e3563760e11b815260048101869052602490fd5b611d9190611d3f6116ed6116e885600052600d602052604060002090565b81518a526020526040892060ff198154169055611d746115416117408760018060a01b0316600052600e602052604060002090565b6001600160a01b0385166000908152600f60205260409020611769565b558238611cec565b905081141538611ce6565b60019150611ce0565b604051633250574960e11b815260048101889052602490fd5b60405190611dd382610773565b6005825264426173696360d81b6020830152565b600281901b91906001600160fe1b03811603611b7557565b908160011b9180830460021490151715611b7557565b60405190611e2282610773565b600782526614195c999958dd60ca1b6020830152565b60405190611e4582610773565b6006825265115e1c195c9d60d21b6020830152565b60405190611e6782610773565b600882526710591d985b98d95960c21b6020830152565b9060ff16908115611edb5760ff16606481029080820460641490151715611b75570460648114611ed2576050811015611ec957603c1115611ec1576102b4611dc6565b6102b4611e5a565b506102b4611e38565b506102b4611e15565b50506102b4611dc6565b90604051611ef281610736565b6080611f27600383958054855260ff6001820154818116602088015260081c1660408601526002810154606086015201610aca565b910152565b90611f3f6020928281519485920161025b565b0190565b604051906060820182811067ffffffffffffffff82111761075257604052604082527f6768696a6b6c6d6e6f707172737475767778797a303132333435363738392b2f6040837f4142434445464748494a4b4c4d4e4f505152535455565758595a61626364656660208201520152565b9060028201809211611b7557565b90611fcb826107c0565b611fd8604051918261078f565b8281528092611fe9601f19916107c0565b0190602036910137565b908151156120ca5761201f61201a61201561200e8551611fb3565b6003900490565b611de7565b611fc1565b91602083019181825183016020810191825193600084525b82821061207857505050525160039006600181146120655760021461205a575090565b603d90600019015390565b50603d9081600019820153600119015390565b9091956004906003809401938451600190603f9082828260121c16880101518553828282600c1c16880101518386015382828260061c1688010151600286015316850101519082015301959190612037565b50506102b46117ae565b806000917a184f03e93ff9f4daa797ed6e38ed64bf6a1f01000000000000000080821015612209575b506d04ee2d6d415b85acef8100000000808310156121fa575b50662386f26fc10000808310156121eb575b506305f5e100808310156121dc575b50612710808310156121cd575b5060648210156121bd575b600a809210156121b3575b60019081602161216b828701611fc1565b95860101905b61217d575b5050505090565b600019019083906f181899199a1a9b1b9c1cb0b131b232b360811b8282061a8353049182156121ae57919082612171565b612176565b916001019161215a565b919060646002910491019161214f565b60049193920491019138612144565b60089193920491019138612137565b60109193920491019138612128565b60209193920491019138612116565b6040935081049150386120fd565b908151811015612228570160200190565b611820565b9061223b61201a8351611dff565b600080805b8551811015612389576122646122568288612217565b516001600160f81b03191690565b6001600160f81b03198116601160f91b81036122af5750506122aa90605c61229561228e86611b66565b9587612217565b5360226122a461228e86611b66565b53611b66565b612240565b601760fa1b81036122e55750506122aa906122d86122cc85611b66565b94605c91829188612217565b536122a461228e86611b66565b600560f91b81036123135750506122aa90605c61230461228e86611b66565b53606e6122a461228e86611b66565b600d60f81b81036123415750506122aa90605c61233261228e86611b66565b5360726122a461228e86611b66565b600960f81b0361236d57506122aa90605c61235e61228e86611b66565b5360746122a461228e86611b66565b926122aa91906122a461237f82611b66565b95851a9187612217565b505081529150565b6040519061239e82610773565b60078252662334413930443960c81b6020830152565b604051906123c182610773565b600782526611a1a21ba3199960c91b6020830152565b604051906123e482610773565b60078252660234330433043360cc1b6020830152565b6040519061240782610773565b60078252660234646443730360cc1b6020830152565b6124346116e882600052600d602052604060002090565b60209081810192612446845160ff1690565b9361245a6040840195610676875160ff1690565b91825185840190812061246b611e15565b805190880120036128f0575061247f6123fa565b915b5161248e9060ff166120d4565b955161249c9060ff166120d4565b9360800151906124ab906120d4565b93604051968796870161250890603e907f3c73766720786d6c6e733d22687474703a2f2f7777772e77332e6f72672f323081527f30302f737667222076696577426f783d223020302034303020343030223e000060208201520190565b7f3c646566733e3c6c696e6561724772616469656e742069643d2262672220783181527f3d223025222079313d223025222078323d2231303025222079323d2231303025602082015261111f60f11b60408201526042017f3c73746f70206f66667365743d22302522207374796c653d2273746f702d636f81526d3637b91d1198b098b0993291179f60911b6020820152602e017f3c73746f70206f66667365743d223130302522207374796c653d2273746f702d81526f31b7b637b91d11989b191899b291179f60811b60208201526030017f3c2f6c696e6561724772616469656e743e3c2f646566733e000000000000000081526018017f3c726563742077696474683d2234303022206865696768743d2234303022206681526f34b6361e913ab9361411b1339491179f60811b60208201526030017f3c636972636c652063783d22323030222063793d223135302220723d22383022815266103334b6361e9160c91b60208201526027016126809085611f2c565b70111037b830b1b4ba3c9e9118171c91179f60791b81526011017f3c7465787420783d223230302220793d223136302220746578742d616e63686f81527f723d226d6964646c65222066696c6c3d22233161316132652220666f6e742d7360208201527f697a653d2234382220666f6e742d7765696768743d22626f6c64223e000000006040820152605c0161271591611f2c565b602f60f81b815260010161272891611f2c565b661e17ba32bc3a1f60c91b81526007017f3c7465787420783d223230302220793d223237302220746578742d616e63686f81527f723d226d6964646c65222066696c6c3d2277686974652220666f6e742d73697a60208201527f653d2232342220666f6e742d7765696768743d22626f6c64223e0000000000006040820152605a016127b391611f2c565b661e17ba32bc3a1f60c91b81526007017f3c7465787420783d223230302220793d223331302220746578742d616e63686f815270391e9136b4b232363291103334b6361e9160791b602082015260310161280c91611f2c565b7011103337b73a16b9b4bd329e911918111f60791b815260110161282f91611f2c565b64102a34b2b960d91b8152600501661e17ba32bc3a1f60c91b81526007017f3c7465787420783d223230302220793d223337302220746578742d616e63686f81527f723d226d6964646c65222066696c6c3d22233838382220666f6e742d73697a6560208201527f3d223134223e4a7565676f20517565737420426164676520230000000000000060408201526059016128c891611f2c565b6c1e17ba32bc3a1f1e17b9bb339f60991b8152600d0103601f19810182526102b4908261078f565b835181206128fc611e38565b8051908801200361291657506129106123d7565b91612481565b83519020612922611e5a565b80519087012003612935576129106123b4565b612910612391565b6000828152600260205260409020546001600160a01b0316916001600160a01b038084168015918215612a24575b8416918215908115612a00575b61299086610489876000526002602052604060002090565b8484847fddf252ad1be2c89b69c2b068fc378daa952ba7f163c4a11628f55a4df523b3ef600080a4156129ea576129c684612be3565b156129d75750506102b49150612cb0565b036129e157505090565b6102b491612b9c565b8183146129c6576129fb8487612c40565b6129c6565b6001600160a01b038616600090815260036020526040902060018154019055612978565b612a2d846117c1565b6001600160a01b0386166000908152600360205260409020805460001901905561296b565b6000828152600260205260409020549091906001600160a01b0316926001600160a01b039082828216612ab2575b50508084168015918215612a24578416918215908115612a005761299086610489876000526002602052604060002090565b612abc9186612ac3565b3882612a80565b6001600160a01b03908282168015159081612b2e575b5015612ae55750505050565b16612b0357604051637e27328960e01b815260048101839052602490fd5b60405163177e802f60e01b81526001600160a01b039190911660048201526024810191909152604490fd5b82841680821492508215612b66575b508115612b4c575b5038612ad9565b905084600052600460205282604060002054161438612b45565b909150600052600560205260ff612b938560406000209060018060a01b0316600052602052604060002090565b54169038612b3d565b90612ba682611612565b600019810192908311611b75576001600160a01b031660009081526006602090815260408083208584528252808320849055928252600790522055565b60085481600052600960205280604060002055680100000000000000008110156107525760018101806008558110156122285760086000527ff3f7a9fe364faab93b216da50a3214154f22a0a2b415b23a84c8169e8b636ee30155565b90612c4a82611612565b9160009282845260209060078252604093848620549360018060a01b031686526006835284862093828103612c8e575b508552600782528484812055845252812055565b8287528484528587205481885280878920558752600784528587205538612c7a565b6008805460001992838201828111611b75576000928284526009602052806040852054921015612228578484527ff3f7a9fe364faab93b216da50a3214154f22a0a2b415b23a84c8169e8b636ee2928382015491831015612228578492612d4c612d5d9388865280837ff3f7a9fe364faab93b216da50a3214154f22a0a2b415b23a84c8169e8b636ee301556000526009602052604060002090565b556000526009602052604060002090565b558254938415612d7a578401938085101561222857838352015555565b634e487b7160e01b83526031600452602483fdfea2646970667358221220a8f3e10ec64eb92629a4c1922b57af802e5f1f08d75354de72b96c883856a5e764736f6c63430008140033",
  "devdoc": {
    "details": "Tradable ERC721 NFT badges awarded for completing quizzes in juego.quest Each badge represents completing a specific quiz with a certain score tier Only the owner (deployer) can mint new badges",
    "errors": {
      "ERC721EnumerableForbiddenBatchMint()": [
        {
          "details": "Batch mint is not allowed."
        }
      ],
      "ERC721IncorrectOwner(address,uint256,address)": [
        {
          "details": "Indicates an error related to the ownership over a particular token. Used in transfers.",
          "params": {
            "owner": "Address of the current owner of a token.",
            "sender": "Address whose tokens are being transferred.",
            "tokenId": "Identifier number of a token."
          }
        }
      ],
      "ERC721InsufficientApproval(address,uint256)": [
        {
          "details": "Indicates a failure with the `operator`s approval. Used in transfers.",
          "params": {
            "operator": "Address that may be allowed to operate on tokens without being their owner.",
            "tokenId": "Identifier number of a token."
          }
        }
      ],
      "ERC721InvalidApprover(address)": [
        {
          "details": "Indicates a failure with the `approver` of a token to be approved. Used in approvals.",
          "params": {
            "approver": "Address initiating an approval operation."
          }
        }
      ],
      "ERC721InvalidOperator(address)": [
        {
          "details": "Indicates a failure with the `operator` to be approved. Used in approvals.",
          "params": {
            "operator": "Address that may be allowed to operate on tokens without being their owner."
          }
        }
      ],
      "ERC721InvalidOwner(address)": [
        {
          "details": "Indicates that an address can't be an owner. For example, `address(0)` is a forbidden owner in ERC-20. Used in balance queries.",
          "params": {
            "owner": "Address of the current owner of a token."
          }
        }
      ],
      "ERC721InvalidReceiver(address)": [
        {
          "details": "Indicates a failure with the token `receiver`. Used in transfers.",
          "params": {
            "receiver": "Address to which tokens are being transferred."
          }
        }
      ],
      "ERC721InvalidSender(address)": [
        {
          "details": "Indicates a failure with the token `sender`. Used in transfers.",
          "params": {
            "sender": "Address whose tokens are being transferred."
          }
        }
      ],
      "ERC721NonexistentToken(uint256)": [
        {
          "details": "Indicates a `tokenId` whose `owner` is the zero address.",
          "params": {
            "tokenId": "Identifier number of a token."
          }
        }
      ],
      "ERC721OutOfBoundsIndex(address,uint256)": [
        {
          "details": "An `owner`'s token query was out of bounds for `index`. NOTE: The owner being `address(0)` indicates a global out of bounds index."
        }
      ],
      "OwnableInvalidOwner(address)": [
        {
          "details": "The owner is not a valid owner account. (eg. `address(0)`)"
        }
      ],
      "OwnableUnauthorizedAccount(address)": [
        {
          "details": "The caller account is not authorized to perform an operation."
        }
      ]
    },
    "events": {
      "Approval(address,address,uint256)": {
        "details": "Emitted when `owner` enables `approved` to manage the `tokenId` token."
      },
      "ApprovalForAll(address,address,bool)": {
        "details": "Emitted when `owner` enables or disables (`approved`) `operator` to manage all of its assets."
      },
      "Transfer(address,address,uint256)": {
        "details": "Emitted when `tokenId` token is transferred from `from` to `to`."
      }
    },
    "kind": "dev",
    "methods": {
      "approve(address,uint256)": {
        "details": "Gives permission to `to` to transfer `tokenId` token to another account. The approval is cleared when the token is transferred. Only a single account can be approved at a time, so approving the zero address clears previous approvals. Requirements: - The caller must own the token or be an approved operator. - `tokenId` must exist. Emits an {Approval} event."
      },
      "balanceOf(address)": {
        "details": "Returns the number of tokens in ``owner``'s account."
      },
      "getApproved(uint256)": {
        "details": "Returns the account approved for `tokenId` token. Requirements: - `tokenId` must exist."
      },
      "getBadgeTier(uint256)": {
        "details": "Get tier for a badge"
      },
      "isApprovedForAll(address,address)": {
        "details": "Returns if the `operator` is allowed to manage all of the assets of `owner`. See {setApprovalForAll}"
      },
      "mintBadge(address,uint256,uint8,uint8,string)": {
        "details": "Mint a badge NFT to a player - only callable by owner",
        "params": {
          "correctAnswers": "Number of correct answers",
          "quizId": "The ID of the quiz completed",
          "quizName": "Name of the quiz (max 100 characters)",
          "to": "The address to mint the badge to",
          "totalQuestions": "Total number of questions"
        }
      },
      "name()": {
        "details": "Returns the token collection name."
      },
      "owner()": {
        "details": "Returns the address of the current owner."
      },
      "ownerOf(uint256)": {
        "details": "Returns the owner of the `tokenId` token. Requirements: - `tokenId` must exist."
      },
      "renounceOwnership()": {
        "details": "Leaves the contract without owner. It will not be possible to call `onlyOwner` functions. Can only be called by the current owner. NOTE: Renouncing ownership will leave the contract without an owner, thereby disabling any functionality that is only available to the owner."
      },
      "safeTransferFrom(address,address,uint256)": {
        "details": "Safely transfers `tokenId` token from `from` to `to`, checking first that contract recipients are aware of the ERC-721 protocol to prevent tokens from being forever locked. Requirements: - `from` cannot be the zero address. - `to` cannot be the zero address. - `tokenId` token must exist and be owned by `from`. - If the caller is not `from`, it must have been allowed to move this token by either {approve} or   {setApprovalForAll}. - If `to` refers to a smart contract, it must implement {IERC721Receiver-onERC721Received}, which is called upon   a safe transfer. Emits a {Transfer} event."
      },
      "safeTransferFrom(address,address,uint256,bytes)": {
        "details": "Safely transfers `tokenId` token from `from` to `to`. Requirements: - `from` cannot be the zero address. - `to` cannot be the zero address. - `tokenId` token must exist and be owned by `from`. - If the caller is not `from`, it must be approved to move this token by either {approve} or {setApprovalForAll}. - If `to` refers to a smart contract, it must implement {IERC721Receiver-onERC721Received}, which is called upon   a safe transfer. Emits a {Transfer} event."
      },
      "setApprovalForAll(address,bool)": {
        "details": "Approve or remove `operator` as an operator for the caller. Operators can call {transferFrom} or {safeTransferFrom} for any token owned by the caller. Requirements: - The `operator` cannot be the address zero. Emits an {ApprovalForAll} event."
      },
      "setBaseURI(string)": {
        "details": "Set the base URI for token metadata"
      },
      "symbol()": {
        "details": "Returns the token collection symbol."
      },
      "tokenByIndex(uint256)": {
        "details": "Returns a token ID at a given `index` of all the tokens stored by the contract. Use along with {totalSupply} to enumerate all tokens."
      },
      "tokenOfOwnerByIndex(address,uint256)": {
        "details": "Returns a token ID owned by `owner` at a given `index` of its token list. Use along with {balanceOf} to enumerate all of ``owner``'s tokens."
      },
      "tokenURI(uint256)": {
        "details": "Returns the token URI with on-chain metadata"
      },
      "totalSupply()": {
        "details": "Returns the total amount of tokens stored by the contract."
      },
      "transferFrom(address,address,uint256)": {
        "details": "Transfers `tokenId` token from `from` to `to`. WARNING: Note that the caller is responsible to confirm that the recipient is capable of receiving ERC-721 or else they may be permanently lost. Usage of {safeTransferFrom} prevents loss, though the caller must understand this adds an external call which potentially creates a reentrancy vulnerability. Requirements: - `from` cannot be the zero address. - `to` cannot be the zero address. - `tokenId` token must be owned by `from`. - If the caller is not `from`, it must be approved to move this token by either {approve} or {setApprovalForAll}. Emits a {Transfer} event."
      },
      "transferOwnership(address)": {
        "details": "Transfers ownership of the contract to a new account (`newOwner`). Can only be called by the current owner."
      }
    },
    "title": "BadgeNFT",
    "version": 1
  },
  "userdoc": {
    "kind": "user",
    "methods": {},
    "version": 1
  },
  "storageLayout": {
    "storage": [
      {
        "astId": 317,
        "contract": "contracts/BadgeNFT.sol:BadgeNFT",
        "label": "_name",
        "offset": 0,
        "slot": "0",
        "type": "t_string_storage"
      },
      {
        "astId": 319,
        "contract": "contracts/BadgeNFT.sol:BadgeNFT",
        "label": "_symbol",
        "offset": 0,
        "slot": "1",
        "type": "t_string_storage"
      },
      {
        "astId": 323,
        "contract": "contracts/BadgeNFT.sol:BadgeNFT",
        "label": "_owners",
        "offset": 0,
        "slot": "2",
        "type": "t_mapping(t_uint256,t_address)"
      },
      {
        "astId": 327,
        "contract": "contracts/BadgeNFT.sol:BadgeNFT",
        "label": "_balances",
        "offset": 0,
        "slot": "3",
        "type": "t_mapping(t_address,t_uint256)"
      },
      {
        "astId": 331,
        "contract": "contracts/BadgeNFT.sol:BadgeNFT",
        "label": "_tokenApprovals",
        "offset": 0,
        "slot": "4",
        "type": "t_mapping(t_uint256,t_address)"
      },
      {
        "astId": 337,
        "contract": "contracts/BadgeNFT.sol:BadgeNFT",
        "label": "_operatorApprovals",
        "offset": 0,
        "slot": "5",
        "type": "t_mapping(t_address,t_mapping(t_address,t_bool))"
      },
      {
        "astId": 1395,
        "contract": "contracts/BadgeNFT.sol:BadgeNFT",
        "label": "_ownedTokens",
        "offset": 0,
        "slot": "6",
        "type": "t_mapping(t_address,t_mapping(t_uint256,t_uint256))"
      },
      {
        "astId": 1399,
        "contract": "contracts/BadgeNFT.sol:BadgeNFT",
        "label": "_ownedTokensIndex",
        "offset": 0,
        "slot": "7",
        "type": "t_mapping(t_uint256,t_uint256)"
      },
      {
        "astId": 1402,
        "contract": "contracts/BadgeNFT.sol:BadgeNFT",
        "label": "_allTokens",
        "offset": 0,
        "slot": "8",
        "type": "t_array(t_uint256)dyn_storage"
      },
      {
        "astId": 1406,
        "contract": "contracts/BadgeNFT.sol:BadgeNFT",
        "label": "_allTokensIndex",
        "offset": 0,
        "slot": "9",
        "type": "t_mapping(t_uint256,t_uint256)"
      },
      {
        "astId": 8,
        "contract": "contracts/BadgeNFT.sol:BadgeNFT",
        "label": "_owner",
        "offset": 0,
        "slot": "10",
        "type": "t_address"
      },
      {
        "astId": 7063,
        "contract": "contracts/BadgeNFT.sol:BadgeNFT",
        "label": "_nextTokenId",
        "offset": 0,
        "slot": "11",
        "type": "t_uint256"
      },
      {
        "astId": 7065,
        "contract": "contracts/BadgeNFT.sol:BadgeNFT",
        "label": "baseURI",
        "offset": 0,
        "slot": "12",
        "type": "t_string_storage"
      },
      {
        "astId": 7081,
        "contract": "contracts/BadgeNFT.sol:BadgeNFT",
        "label": "badges",
        "offset": 0,
        "slot": "13",
        "type": "t_mapping(t_uint256,t_struct(BadgeData)7076_storage)"
      },
      {
        "astId": 7087,
        "contract": "contracts/BadgeNFT.sol:BadgeNFT",
        "label": "hasBadgeForQuiz",
        "offset": 0,
        "slot": "14",
        "type": "t_mapping(t_address,t_mapping(t_uint256,t_bool))"
      },
      {
        "astId": 7093,
        "contract": "contracts/BadgeNFT.sol:BadgeNFT",
        "label": "playerQuizBadge",
        "offset": 0,
        "slot": "15",
        "type": "t_mapping(t_address,t_mapping(t_uint256,t_uint256))"
      }
    ],
    "types": {
      "t_address": {
        "encoding": "inplace",
        "label": "address",
        "numberOfBytes": "20"
      },
      "t_array(t_uint256)dyn_storage": {
        "base": "t_uint256",
        "encoding": "dynamic_array",
        "label": "uint256[]",
        "numberOfBytes": "32"
      },
      "t_bool": {
        "encoding": "inplace",
        "label": "bool",
        "numberOfBytes": "1"
      },
      "t_mapping(t_address,t_bool)": {
        "encoding": "mapping",
        "key": "t_address",
        "label": "mapping(address => bool)",
        "numberOfBytes": "32",
        "value": "t_bool"
      },
      "t_mapping(t_address,t_mapping(t_address,t_bool))": {
        "encoding": "mapping",
        "key": "t_address",
        "label": "mapping(address => mapping(address => bool))",
        "numberOfBytes": "32",
        "value": "t_mapping(t_address,t_bool)"
      },
      "t_mapping(t_address,t_mapping(t_uint256,t_bool))": {
        "encoding": "mapping",
        "key": "t_address",
        "label": "mapping(address => mapping(uint256 => bool))",
        "numberOfBytes": "32",
        "value": "t_mapping(t_uint256,t_bool)"
      },
      "t_mapping(t_address,t_mapping(t_uint256,t_uint256))": {
        "encoding": "mapping",
        "key": "t_address",
        "label": "mapping(address => mapping(uint256 => uint256))",
        "numberOfBytes": "32",
        "value": "t_mapping(t_uint256,t_uint256)"
      },
      "t_mapping(t_address,t_uint256)": {
        "encoding": "mapping",
        "key": "t_address",
        "label": "mapping(address => uint256)",
        "numberOfBytes": "32",
        "value": "t_uint256"
      },
      "t_mapping(t_uint256,t_address)": {
        "encoding": "mapping",
        "key": "t_uint256",
        "label": "mapping(uint256 => address)",
        "numberOfBytes": "32",
        "value": "t_address"
      },
      "t_mapping(t_uint256,t_bool)": {
        "encoding": "mapping",
        "key": "t_uint256",
        "label": "mapping(uint256 => bool)",
        "numberOfBytes": "32",
        "value": "t_bool"
      },
      "t_mapping(t_uint256,t_struct(BadgeData)7076_storage)": {
        "encoding": "mapping",
        "key": "t_uint256",
        "label": "mapping(uint256 => struct BadgeNFT.BadgeData)",
        "numberOfBytes": "32",
        "value": "t_struct(BadgeData)7076_storage"
      },
      "t_mapping(t_uint256,t_uint256)": {
        "encoding": "mapping",
        "key": "t_uint256",
        "label": "mapping(uint256 => uint256)",
        "numberOfBytes": "32",
        "value": "t_uint256"
      },
      "t_string_storage": {
        "encoding": "bytes",
        "label": "string",
        "numberOfBytes": "32"
      },
      "t_struct(BadgeData)7076_storage": {
        "encoding": "inplace",
        "label": "struct BadgeNFT.BadgeData",
        "members": [
          {
            "astId": 7067,
            "contract": "contracts/BadgeNFT.sol:BadgeNFT",
            "label": "quizId",
            "offset": 0,
            "slot": "0",
            "type": "t_uint256"
          },
          {
            "astId": 7069,
            "contract": "contracts/BadgeNFT.sol:BadgeNFT",
            "label": "correctAnswers",
            "offset": 0,
            "slot": "1",
            "type": "t_uint8"
          },
          {
            "astId": 7071,
            "contract": "contracts/BadgeNFT.sol:BadgeNFT",
            "label": "totalQuestions",
            "offset": 1,
            "slot": "1",
            "type": "t_uint8"
          },
          {
            "astId": 7073,
            "contract": "contracts/BadgeNFT.sol:BadgeNFT",
            "label": "completedAt",
            "offset": 0,
            "slot": "2",
            "type": "t_uint256"
          },
          {
            "astId": 7075,
            "contract": "contracts/BadgeNFT.sol:BadgeNFT",
            "label": "quizName",
            "offset": 0,
            "slot": "3",
            "type": "t_string_storage"
          }
        ],
        "numberOfBytes": "128"
      },
      "t_uint256": {
        "encoding": "inplace",
        "label": "uint256",
        "numberOfBytes": "32"
      },
      "t_uint8": {
        "encoding": "inplace",
        "label": "uint8",
        "numberOfBytes": "1"
      }
    }
  }
}